:10C0000000400010FDCB000065CC0000F1CA00002C
:10C0100067CC000067CC000067CC00000000000087
:10C0200000000000000000000000000069CC0000DB
:10C0300069CC00000000000069CC000069CC000061
:10C0400069CC000069CC000069CC000069CC00001C
:10C0500069CC000069CC000069CC000069CC00000C
:10C0600069CC000069CC000069CC000069CC0000FC
:10C0700069CC000069CC000069CC000069CC0000EC
:10C0800069CC000069CC000069CC000069CC0000DC
:10C0900069CC000069CC000069CC000069CC0000CC
:10C0A00069CC000069CC000069CC000069CC0000BC
:10C0B00069CC000069CC000069CC000069CC0000AC
:10C0C0000000000000000000000000000000000070
:10C0D0000000000000000000000000000000000060
:10C0E0000000000000000000000000000000000050
:10C0F0000000000000000000000000000000000040
:10C10000844641EA000313F003036DD1403A41D362
:10C1100051F8043B40F8043B51F8043B40F8043B21
:10C1200051F8043B40F8043B51F8043B40F8043B11
:10C1300051F8043B40F8043B51F8043B40F8043B01
:10C1400051F8043B40F8043B51F8043B40F8043BF1
:10C1500051F8043B40F8043B51F8043B40F8043BE1
:10C1600051F8043B40F8043B51F8043B40F8043BD1
:10C1700051F8043B40F8043B51F8043B40F8043BC1
:10C1800051F8043B40F8043B51F8043B40F8043BB1
:10C19000403ABDD2303211D351F8043B40F8043B51
:10C1A00051F8043B40F8043B51F8043B40F8043B91
:10C1B00051F8043B40F8043B103AEDD20C3205D361
:10C1C00051F8043B40F8043B043AF9D2043208D059
:10C1D000D2071CBF11F8013B00F8013B01D30B88CB
:10C1E00003806046704700BF082A13D38B078DD0A9
:10C1F00010F003038AD0C3F10403D21ADB071CBF7B
:10C2000011F8013B00F8013B80D331F8023B20F8E4
:10C21000023B7BE7043AD9D3013A11F8013B00F81D
:10C22000013BF9D20B7803704B7843708B788370A5
:10C230006046704700B585B00190019B5B0B03F031
:10C240003F030393019BDB0C03F001030293039A6A
:10C250000299044801F06CFC0346184605B05DF8ED
:10C2600004FB00BF2143341210B5ADF5025D84B06C
:10C270000021002001F0C0FBAB4801F015FA01F0ED
:10C2800037FA01F0F1F900F07BFEA849002001F037
:10C29000D7F9A749002001F0D3F9A649002001F001
:10C2A000CFF9A349002001F0CBF90DF5005303F1BC
:10C2B00014031946012001F05DFE9F4BD3F8A43111
:10C2C000C3F38003DBB2002B00F0EA809A4BD3F873
:10C2D000A031C3F38003DBB2002B00F0E180974B69
:10C2E0000DF5015202F124021360954B0DF5025237
:10C2F00002F10C021360934B0DF5025202F1080299
:10C3000013600DF5015303F124031B6819680DF543
:10C31000015303F124031B68043318680DF501531E
:10C3200003F124031B6808331B680DF5015202F169
:10C33000240212680C3212680192009303460A46E6
:10C340008149002001F07CF900230DF5025202F131
:10C35000040213607D49002001F072F900230DF5FD
:10C36000025202F10402136040E00DF5025303F1A2
:10C3700004031B6803F108000DF5025303F10C03DD
:10C380001B681C680DF5025303F10C031B68043392
:10C390001B680DF5025202F10C0212680832126895
:10C3A0000DF5025101F10C0109680C310968029187
:10C3B00001920093234602466549002001F040F9AE
:10C3C0000DF5025303F10C031B6810330DF50252F7
:10C3D00002F10C0213600DF5025303F104031B6814
:10C3E00001330DF5025202F1040213600DF5025300
:10C3F00003F104031B68072BB7D95649002001F04D
:10C400001FF900230DF5025202F10402136040E00F
:10C410000DF5025303F104031B6803F108000DF549
:10C42000025303F108031B681C680DF5025303F166
:10C4300008031B6804331B680DF5025202F1080261
:10C440001268083212680DF5025101F108010968FD
:10C450000C310968029101920093234602463C493F
:10C46000002001F0EDF80DF5025303F108031B68FD
:10C4700010330DF5025202F1080213600DF502535C
:10C4800003F104031B6801330DF5025202F10402AB
:10C4900013600DF5025303F104031B68072BB7D992
:10C4A0002D49002001F0CCF8234BD3F86432C3F3BC
:10C4B0000003DBB21A462949002001F0C1F81E4BE7
:10C4C000D3F86432C3F30003DBB2002B00F03F82E9
:10C4D000194BD3F8643223F003030DF5015202F136
:10C4E0002002136000230DF5025213600DF5015375
:10C4F00003F120031B681B680DF5015202F13C0299
:10C5000013600DF5015303F120031A68144900204C
:10C5100001F096F80DF5015303F13C031A68114937
:10C52000002001F08DF809E2CCE60000CCE200002A
:10C53000D0E20000FCE2000000000240001A0250BD
:10C54000001802508018025028E3000054E3000055
:10C550005CE3000084E300008CE30000B8E300002B
:10C56000E0E300000CE400000DF5015303F13C038F
:10C570001B6803F00303032B40F090810DF501537A
:10C5800003F13C031B6823F003030DF5015202F194
:10C590003C0213600DF5015303F13C031B680DF5DC
:10C5A000015202F11C0213600DF5005303F1300338
:10C5B0001B680DF5015202F13C0212689A4215D235
:10C5C0000DF5015303F11C031B681B68C3F3130330
:10C5D0001A460DF5015303F13C031B681A440DF58F
:10C5E000005303F130031B689A4220D90DF5015323
:10C5F00003F11C031B681B68C3F313030DF5015201
:10C6000002F13C021268BF49002001F019F80DF553
:10C6100002531B689B000DF5015202F120021268C3
:10C62000134401221946B84801F0B4FA36E10DF579
:10C63000015303F11C031B68DB7803F0F003C02BEC
:10C640001FD10DF5015303F11C031B68DB78C02BD0
:10C6500017D00DF5015303F11C031B68DB78CC2BBD
:10C660000FD00DF5015303F11C031B68DB78CB2BB6
:10C6700007D00DF5015303F11C031B68DB78CF2BAA
:10C6800008D10DF5015303F11C031B68DB78C02BA7
:10C6900040F0EA800DF5015303F11C031B68DB78C1
:10C6A000C02B17D14FF480730DF5015202F13802FF
:10C6B00013600DF5015303F11C031A680DF50153C6
:10C6C00003F138031B6813440DF5015202F13402E3
:10C6D000136010E080230DF5015202F1380213605F
:10C6E0000DF5015303F11C031B6880330DF5015256
:10C6F00002F1340213600DF5015303F11C031B68B2
:10C700001B68C3F313031A460DF5015303F13803F5
:10C710001B68D31A0DF5015202F1180213600DF5D2
:10C72000015303F118031B6803F5FF531F335B0B21
:10C730000DF5015202F1140213600DF5015303F1DE
:10C740001C031B681B6FC3F39D039B000DF5015277
:10C7500002F1300213600DF5015303F11C031B6855
:10C76000DB781A460DF5015303F130031B68029381
:10C770000DF5015303F118031B6801930DF50153E7
:10C7800003F138031B68009313460DF5015202F1C3
:10C790003C0212685D49002000F052FF00230DF5B5
:10C7A000015202F12C02136042E014AB3C3B4FF407
:10C7B00000520DF5015101F1340109681846FFF7E7
:10C7C0009FFC0DF5015303F130031B681846FFF77A
:10C7D00031FD14A93C394FF400630DF5015202F10B
:10C7E00030021268484801F0A7F90DF5015303F132
:10C7F00034031B6803F500530DF5015202F13402B6
:10C8000013600DF5015303F130031B6803F500536A
:10C810000DF5015202F1300213600DF5015303F1E1
:10C820002C031B6801330DF5015202F12C02136039
:10C830000DF5015303F12C031A680DF5015303F1B3
:10C8400014031B689A42B0D30DF502531B689B007A
:10C850000DF5015202F12002126813440322194619
:10C86000294801F097F919E00DF5015303F11C0374
:10C870001B68DB781A462649002000F0E1FE0DF522
:10C8800002531B689B000DF5015202F12002126851
:10C890001344012219461C4801F07CF90DF502539E
:10C8A0001B685A1C0DF502510A60082B07D10DF5C3
:10C8B00002531A681749002000F0C2FE47E00DF548
:10C8C00002531B689B000DF5015202F12002126811
:10C8D00013441A460DF5005303F130031B689A42C6
:10C8E0001CD30DF502531B689B000DF5015202F19C
:10C8F0002002126813441A460749002000F0A0FEE7
:10C9000025E000BF34E400002143341270E400004D
:10C91000C8E40000ECE4000004E500000DF502535B
:10C920001B689B000DF5015202F1200212681344AE
:10C930001B680DF5015202F13C0213600DF5015325
:10C9400003F13C031B68B3F1FF3F7FF40DAE5F4979
:10C95000002000F075FE5E4B0022C3F864224FF405
:10C96000A0330DF5015202F1100213600DF50153D1
:10C9700003F110031B681B680DF5015202F10C0254
:10C9800013600DF5015303F110031B6804331B689A
:10C990000DF5015202F10802136000230DF501525A
:10C9A00002F1280213600DF5015303F110031A6818
:10C9B0004849002000F044FE0DF5005303F1340314
:10C9C0001B6803F1805300934FF080530DF5015223
:10C9D00002F10C0212684049002000F031FE0DF512
:10C9E000005303F130031B6800930DF5015303F16D
:10C9F00010031B680DF5015202F108021268374955
:10CA0000002000F01DFE0DF5015303F108031B6823
:10CA100003F001031A463249002000F011FE0DF523
:10CA2000015303F10C031B68B3F1805F25D30DF5AF
:10CA3000005303F134031B6803F180530DF50152D9
:10CA400002F10C0212689A4217D20DF5015303F15C
:10CA500008031A680DF5015303F110031B689A428D
:10CA60000BD30DF5005303F130031B680DF5015294
:10CA700002F1080212689A4204D31A49002000F019
:10CA8000DFFD1BE00DF5015303F108031B680DF5F5
:10CA9000015202F10C0212681349002000F0D0FD8F
:10CAA0000DF5015303F110031B680DF5015202F15E
:10CAB000280213600D49002000F0C2FD0DF501535E
:10CAC00003F12803186801F0B9FBFEE724E5000034
:10CAD0000000024048E5000074E50000B0E50000F9
:10CAE000ECE5000018E600003CE6000074E60000FB
:10CAF00001B51EF0040F0ABFEFF30880EFF30980C1
:10CB000010F1080000F00AF801BD00BF18468000CF
:10CB100040180068704700BF1846000000B597B085
:10CB2000019003AB00221A605A609A60DA601A61C1
:10CB30005A6100231593159B13932E4B1B68139377
:10CB4000139BDBB28DF85030139B1B0ADBB28DF8C0
:10CB50005130139B1B0C9BB2ADF85230264B1B6817
:10CB600012939DF85130DBB203F00203002B05D085
:10CB700001990620FFF7CBFF034601E04FF0FF339A
:10CB8000119301990020FFF7C2FF03460993019911
:10CB90000120FFF7BCFF03460A9301990220FFF72B
:10CBA000B6FF03460B9301990320FFF7B0FF03463E
:10CBB0000C9301990420FFF7AAFF03460D930199F6
:10CBC0000520FFF7A4FF03460E9301990620FFF707
:10CBD0009EFF03460F9301990720FFF798FF034636
:10CBE000109303AB1946022001F0C4F900231593FA
:10CBF000FEE700BF28ED00E038ED00E011481249E3
:10CC00000160D1F800D01148016841F47001016061
:10CC1000BFF34F8FBFF36F8F0D480E490E4A50F888
:10CC2000043B41F8043B9142F9DB0C480C494FF0BE
:10CC300000028842B8BF40F8042BFADBFFF714FB70
:10CC400000BE00BF08ED00E000C0000088ED00E07D
:10CC5000BCE80000004000103440001034400010D8
:10CC6000F0440010FEE7FEE7FEE7000082B0234B31
:10CC70000093009B03221A61009B03225A61009BD0
:10CC80001F4A9A61009B1F4ADA61009B4FF4806241
:10CC90001A62009B00229A62009B00225A62009B4B
:10CCA0000022DA62009B164A1A66009B164A5A66F0
:10CCB000009B10229A66009B00221A67009B0022AC
:10CCC000DA66009B00225A67BFF35F8F002301934F
:10CCD0000CE0019BC3F10F030C4AD15C009A019B4D
:10CCE00013440A461A70019B01330193019B0F2BD9
:10CCF000EFD9BFF35F8F00BF02B070473440001020
:10CD00009CE60000DC400010DC440010A8E60000B7
:10CD100000B58BB003900291019200230893039B0E
:10CD2000DB680793039B1B690693069A079B9A424D
:10CD300005D9069A079BD31A013B099307E0039B89
:10CD40009A680699079BCB1A1344013B0993039BEE
:10CD50009A68079BD31A099A934228BF13460993EE
:10CD6000099A019B934228BF13460993039B5A6873
:10CD7000079B13440593099A02990598FFF7C0F998
:10CD8000089A099B13440893029A099B134402933F
:10CD9000019A099BD31A0193079A099B134407939D
:10CDA000039B9B68079A9A4201D100230793BFF324
:10CDB0005F8F039B079ADA60019B002BB2D1089B1F
:10CDC00018460BB05DF804FB00B589B003900291E2
:10CDD0000192039BDB680793039B9A68079BD31A16
:10CDE0000693069A019B9A4211D9039B5A68079BA6
:10CDF00013440493019A02990498FFF781F9BFF351
:10CE00005F8F079A019B1A44039BDA601FE0069B21
:10CE10000593039B5A68079B13440493059A029950
:10CE20000498FFF76DF9019A069BD31A0593039BAB
:10CE30005B680493029A069B1344059A194604986A
:10CE4000FFF75EF9BFF35F8F039B059ADA6000BFBF
:10CE500009B05DF804FB86B00190019B1B69049347
:10CE6000019BDB680393049A039B9A4208D8019BB9
:10CE70009A68039BD21A049B1344013B059304E078
:10CE8000049A039BD31A013B0593059B184606B0F1
:10CE90007047000000B589B0039002910192029B97
:10CEA0000693039B5A1C13465B001344DB00204A85
:10CEB00013440593059B5B69022B29D0022B2ED8C6
:10CEC000002B02D0012B13D029E00598FFF7C3FFF8
:10CED0000490049A019B9A4202D20023079321E016
:10CEE000019B0793019A06990598FFF76DFF19E0DA
:10CEF0000598FFF7B0FF0490019A049B934228BF66
:10CF000013460793079A06990598FFF75DFF09E016
:10CF1000019A06990598FFF7FBFE079002E00023AF
:10CF2000079300BF079B184609B05DF804FB00BFDC
:10CF30003440001000B589B00390029101920F4B6C
:10CF40000793079B1B78DBB2002B01D1FFF78EFE06
:10CF5000EFF311834FF0200181F311880693019ABA
:10CF600002990398FFF796FF0590069B83F31188BB
:10CF7000059B184609B05DF804FB00BF3440001063
:10CF800008B5FFF773FE00BF08BD00B585B001907E
:10CF90000B468DF80330019B9B680393039B5A1C3F
:10CFA000019B5B689A420FD8019B1A68039B13444C
:10CFB0009DF803201A70039B5A1C019B9A60019BE9
:10CFC000DB685A1C019BDA60019B9A68019B5B68D5
:10CFD0009A4215D1019B1869019B1968019B9B68B6
:10CFE0001A46FFF7A7FF0246019B9B689A4204D0AE
:10CFF000019B4FF0FF32DA6002E0019B00229A6051
:10D0000000BF05B05DF804FB00B58BB00390029142
:10D0100001920093029B0893012309930123079334
:10D0200007E0089A019BB2FBF3F30893079B0133D7
:10D030000793089A019B9A42F3D2009A079B9A425F
:10D0400001D9009B07930D9B03F00103002B28D10E
:10D050000C9B002B25D00D9B03F00203002B06D068
:10D06000009B002B03D130238DF81B3002E02023DE
:10D070008DF81B300CE00C9B013B0C939DF81B3092
:10D0800019460398FFF781FF039BDB68002B07DB42
:10D090000C9B002B05D0079A0C9B9A42EBD300E027
:10D0A00000BF039BDB68002B55DB009B012B03D9E2
:10D0B000009B013B009309E0029A099BB2FBF3F34A
:10D0C0000593059A019B9A4200D205E0099B019ABB
:10D0D00002FB03F30993E8E7029A099BB2FBF3F31F
:10D0E0000593059B099A02FB03F3029AD31A029354
:10D0F0001B4A059B13441B7819460398FFF745FF0D
:10D10000039BDB68002B08DB099A019BB2FBF3F35E
:10D110000993099B002BDFD100E000BF0D9B03F0BA
:10D120000103002B17D00C9B002B14D00AE00C9BA2
:10D13000013B0C9320210398FFF727FF039BDB683B
:10D14000002B07DB0C9B002B05D0079A0C9B9A4207
:10D15000EDD300E000BF00BF0BB05DF804FB00BFE3
:10D16000BCE6000000B589B00590049103920293DB
:10D17000049B002BB8BF5B4206930123079307E093
:10D18000039B069A92FBF3F30693079B01330793E5
:10D19000039B069A9A42F3DA029A079B9A4201D9B4
:10D1A000029B07930A9B002B0AD0049B002B04DBF5
:10D1B0000B9B03F00403002B02D00A9B013B0A9354
:10D1C0000B9B03F00203002B02D0029B002B1CD010
:10D1D0000B9B03F00103002B17D10A9B002B14D0EB
:10D1E0000AE00A9B013B0A9320210598FFF7CDFE38
:10D1F000059BDB68002B07DB0A9B002B05D0079AF9
:10D200000A9B9A42EDD300E000BF059BDB68002B30
:10D210004ADB049B002B07DA049B5B4204932D211D
:10D220000598FFF7B2FE08E00B9B03F00403002B08
:10D2300003D02B210598FFF7A8FE059BDB68002B88
:10D2400032DB0B9B03F00203002B1FD00B9B03F080
:10D250000103002B1AD1029B002B17D10A9B002B34
:10D2600014D00AE00A9B013B0A9330210598FFF78E
:10D270008CFE059BDB68002B07DB0A9B002B05D08F
:10D28000079A0A9B9A42EDD300E000BF059BDB683A
:10D29000002B09DB04990B9B01930A9B0093029BD3
:10D2A000039A0598FFF7B0FE00BF09B05DF804FBD4
:10D2B00000B5A3B005900491039206AB16934023EA
:10D2C000179300231893059B1A9300231993049B2B
:10D2D0001B788DF88730049B013304939DF88730C9
:10D2E000002B00F097819DF88730252B40F0868138
:10D2F00000231E9301232093049B1B788DF8873015
:10D300009DF88730233B0D2B3ED801A252F823F025
:10D3100079D3000089D3000089D3000089D30000AD
:10D3200089D3000089D3000089D3000089D300008D
:10D3300069D3000089D3000049D3000089D30000DD
:10D3400089D3000059D300001E9B43F001031E93B4
:10D35000049B013304931AE01E9B43F002031E93C7
:10D36000049B0133049312E01E9B43F004031E93BD
:10D37000049B013304930AE01E9B43F008031E93B1
:10D38000049B0133049302E00023209300BF209B01
:10D39000002BB1D100231D93049B1B788DF887309F
:10D3A0009DF887302F2B12D99DF88730392B0ED856
:10D3B000049B013304931D9A13469B0013445B00A6
:10D3C0001A469DF887301344303B1D93E4E7002351
:10D3D0001F93049B1B788DF887309DF887302E2B88
:10D3E0001DD1049B01330493049B1B788DF8873077
:10D3F0009DF887302F2B12D99DF88730392B0ED806
:10D40000049B013304931F9A13469B0013445B0053
:10D410001A469DF887301344303B1F93E4E7049B82
:10D420001B788DF887309DF887306C2B03D09DF8E2
:10D430008730682B07D1049B01330493049B1B782E
:10D440008DF88730EFE79DF88730252B00F0CB80F3
:10D45000252BC0F2CE80782B00F3CB80582BC0F266
:10D46000C880583B202B00F2C48001A252F823F060
:10D4700061D50000F3D50000F3D50000F3D500001E
:10D48000F3D50000F3D50000F3D50000F3D500007C
:10D49000F3D50000F3D50000F3D50000F5D400006B
:10D4A00019D50000F3D50000F3D50000F3D5000036
:10D4B000F3D50000F3D50000F3D50000F3D500004C
:10D4C000F3D50000F3D50000F3D50000F3D500003C
:10D4D000C3D50000F3D50000F3D5000085D50000CA
:10D4E000F3D500003DD50000F3D50000F3D50000D2
:10D4F00061D50000039B1B68191D039A11601B680E
:10D500002093209B8DF86F309DF86F2016AB11464D
:10D510001846FFF73AFD6DE0039B1B68191D039A3F
:10D5200011601B68209316A81E9B01931D9B0093FE
:10D530001F9B0A222099FFF715FE5BE0039B1B68E7
:10D54000191D039A11601B682093209916A81E9B31
:10D5500001931D9B00931F9B0A22FFF755FD49E095
:10D56000039B1B68191D039A11601B682093209967
:10D5700016A81E9B01931D9B00931F9B1022FFF773
:10D5800043FD37E0039B1B68191D039A11601B685C
:10D590001C931C9B1B788DF887301C9B01331C93BC
:10D5A0009DF88730002B0AD09DF8872016AB1146D6
:10D5B0001846FFF7EAFC199B002BEADA1AE000BFD5
:10D5C00018E0039B1B68191D039A11601B682093C8
:10D5D000209916A800230193082300930823102202
:10D5E000FFF712FD06E016AB25211846FFF7CDFC2C
:10D5F00000E000BF049B0133049306E09DF8872000
:10D6000016AB11461846FFF7C0FC199B002BBFF65E
:10D610005EAE00E000BF199B002B0CDD189B002BB9
:10D6200005D0189A06AB19460598FFF783FC199B9D
:10D63000189A13441993199B184623B05DF804FBFC
:10D640000EB400B584B0019006AB029302AB1A464B
:10D6500005990198FFF72CFE0390039B184604B030
:10D660005DF804EB03B07047F8B500F01DFD00F065
:10D67000D1FD0B4B0B4F1E68002457F83450314638
:10D68000284600F0EBFA0321284600F027FC01347D
:10D690002846002100F022FC052CEED1F8BD00BF89
:10D6A000D4E600000040001030B583B0044600F01E
:10D6B00059FC0E4D01902B6823F440732B600198A8
:10D6C00000F054FC63782278A1781B0203F44073C5
:10D6D000120143EA4103D2B2134343F4801343F4EB
:10D6E000806300202B6003B030BD00BF008001408C
:10D6F000034A136843F0010313600020704700BF22
:10D700000080014010B501388EB0102800F25E8113
:10D71000DFE810F0180036003D00400043004500EF
:10D720001A0011004700540061009A00D3000C0158
:10D7300026013F011D004FF40073AC4A00209360A6
:10D740000EB010BD0123F8E74FF48063F5E7002920
:10D7500000F03C814A68A648024240F037818B685D
:10D76000184040F033810C78002C40F033819F4CFE
:10D77000497822616361236861F382032360DFE7F4
:10D780009A4B1B68DB0140F11F810223D5E74FF460
:10D790008863D2E74FF40873CFE74023CDE7202317
:10D7A000CBE700F0DFFB914A0090136843F08073F1
:10D7B0001360009800F0DAFB0020C1E700F0D2FB14
:10D7C0008A4A0190136823F080731360019800F077
:10D7D000CDFB0020B4E700F0C5FB0346854802936B
:10D7E00000F032FA20F47C5040F4E061814800F00F
:10D7F0002FFA029800F0BAFB00F0B4FB03467D4814
:10D80000039300F021FA20F4776040F4EE61794848
:10D8100000F01EFA039800F0A9FB00F0A3FB0346FA
:10D820007448049300F010FA20F4706020F00F00A8
:10D8300040F4E06141F003016E4800F009FA0498F9
:10D8400000F094FB00207BE700F08CFB0346694866
:10D85000059300F0F9F920F47C5040F4B851654884
:10D8600000F0F6F9059800F081FB00F07BFB034621
:10D870006048069300F0E8F920F4776040F4EA612C
:10D880005C4800F0E5F9069800F070FB00F06AFBD8
:10D8900003465848079300F0D7F920F4706020F051
:10D8A0000F0040F4E06141F00101524800F0D0F96E
:10D8B000079800F05BFB002042E700F053FB0346B3
:10D8C0004C48089300F0C0F920F47C5040F4B85163
:10D8D000484800F0BDF9089800F048FB00F042FB12
:10D8E00003464448099300F0AFF920F4776040F410
:10D8F000EC61404800F0ACF9099800F037FB00F00B
:10D9000031FB03463B480A9300F09EF920F4706017
:10D9100020F00F0040F4E06141F00101354800F0D3
:10D9200097F90A9800F022FB002009E700294DD062
:10D930000C68032C4CD800F015FB03462D480B93C4
:10D9400000F082F920F47C5040EA043141F4E061B7
:10D95000284800F07DF90B9800F008FB0020EFE666
:10D96000A1B30C68072C33D800F0FCFA0346214819
:10D970000C9300F069F920F4776040EA041141F457
:10D98000E0611C4800F064F90C9800F0EFFA002008
:10D99000D6E6D9B10C680F2C1AD800F0E3FA03468A
:10D9A00014480D9300F050F920F4706020F00F003F
:10D9B00040EA040141F4E0610E4800F049F90D9895
:10D9C00000F0D4FA0020BBE60720B9E60620B7E64F
:10D9D0000120B5E6012CF9D1044C4978A261E3613C
:10D9E000236861F3C3032360AAE600BF00800140FF
:10D9F0000F0000F804800140494B1A6812B9494AE7
:10DA000012681A60092800F28980DFE800F00D161C
:10DA10001E263A424C545C054FF0402300201A6AFF
:10DA20006FF300021A6270474FF040230022472133
:10DA3000596110469A615A6170474FF040230020A7
:10DA40009A896FF300029A8170474FF040230020BB
:10DA50009A896FF341029A817047334AD368DBB2E7
:10DA6000212B06D1B2F82031012161F30923A2F85C
:10DA700020314FF040220020938943F0010393812D
:10DA800070474FF040220020938943F002039381B6
:10DA900070474FF0402300224720012158619961CF
:10DAA00010465A6170474FF0402300209A896FF367
:10DAB000C7129A8170474FF040220020938943F0AB
:10DAC000800393817047184AD368DBB2212B0AD0B8
:10DAD00039B10B6843F001034FF04022002013627C
:10DAE0007047124BF8E700B583B04FF47A500191BC
:10DAF000B2F8203143F44073A2F8203100F05AF814
:10DB0000019949B10B6843F001034FF04022002016
:10DB1000136203B05DF804FB044BF6E70620704780
:10DB2000EC44001000F0FF4F0000024001B8250057
:10DB3000004B1847510000082DE9F041124E01EB4F
:10DB40008305B54282B004D0104CA04702B0BDE8B6
:10DB5000F081012B1C468046174604D90B4D013B32
:10DB6000A8470028F2D10A4B084D1B68019304F125
:10DB70008042013A07EB82024046012301A9A847EF
:10DB800002B0BDE8F08100BF00000610550000089B
:10DB9000FCFF051010B50B68054C82B01A40D2434B
:10DBA000019201230A4601A9A04702B010BD00BF9F
:10DBB000550000084FF040235B6B5B0746BF4000F9
:10DBC0000E230B23984202D9C01A014B1847704705
:10DBD0009D0000082DE9F8439DF820C004460D463D
:10DBE00016461F46BCF1000F15D0DFF858804FF0E5
:10DBF000402909E01CB3D9F8343013F0040F0CBFEE
:10DC000005201220013CC04728683040B842F1D1BD
:10DC10000020BDE8F883DFF82C904FF0402809E0A1
:10DC20006CB1D8F8343013F0040F0CBF052012206B
:10DC3000013CC84728683040B842F1D0E8E70420EA
:10DC4000BDE8F8839D000008004B184775000008E8
:10DC5000014B43F00103184728400010312800F21F
:10DC6000BC802DE9F04F044611F0E00701F00700F9
:10DC700085B04FEAC002C1F3C1030FD0C1F3421611
:10DC8000B51D05F00705032D42F0010240F2A78003
:10DC9000C02F00F0EB80202F00F0ED8063B1012B4E
:10DCA00000F0DD80022B40F0C3807E4B1B5D5B07E4
:10DCB00040F1BE8042F080027B4B7C4D1B5D2D5DB0
:10DCC00003415B0003F00203854243EA020300F0D4
:10DCD0009180C1F30726C1F38125C1F380308A0A00
:10DCE00006F00C0740EA450002F00802C1F30035D7
:10DCF000042F42EA000243EA4503284600F0AC80C4
:10DD00006B480068A1EB0008B8FA88F84FEA581889
:10DD100016F0600F04BFC1F3C03060F30002A6002C
:10DD2000C1F3012102294FEAC40500F08E800329C6
:10DD300000F08280012908BF43F0040305F01805B4
:10DD40004FF0000906F01C060F21B140FF2702FA30
:10DD500006F6CA43AF40019203FA05F500F002F956
:10DD600024F0030B4FEA540A0BF1804C514B5249FB
:10DD7000019A0390FF432AF0030A0CF5803CB8F1A6
:10DD8000000F0BD04FEAD40E04F01F084B480EF0E2
:10DD9000040E012404FA08F44EF8004048487324A5
:10DDA0000466DCF800403C402543CCF800505AF8AB
:10DDB0000340224032434AF803205BF801301F4001
:10DDC000002447EA09074BF801700466039800F045
:10DDD000CDF8204605B0BDE8F08F06207047314DE4
:10DDE0002D5D023E42EA8612EE0747D5002B3FF436
:10DDF00063AF54E7C1F30242072A41D0314D1046C8
:10DE000015F82460C1F3C14242EA0010864239D0BD
:10DE100005EB8405A6006A7882423DD0AA7882424A
:10DE20003CD0EA7882423BD0274805B0BDE8F08F6D
:10DE3000264805B0BDE8F08F05F018054FF0010940
:10DE400043F0040309FA05F97CE705F018054FF0E3
:10DE5000010909FA05F975E74FF0010858E7114B78
:10DE60001B5D9D07E4D542F0400225E7142C3FF4EA
:10DE700015AF1748AEE7142C7FF410AF1548A9E78B
:10DE80001548A7E70022A6005200C1F3405042EA1D
:10DE9000C0024FF0000843E70122F5E70222F3E752
:10DEA0000322F1E7D8E600000CE7000008E80000D4
:10DEB000D0E6000040000140E0000140B400014015
:10DEC0000000014040E700000401000802010008D2
:10DED00001010008000100080301000831281AD8D8
:10DEE00070B5052982B00D4612D800F01F0301223B
:10DEF000C00800F0040402FA03F600F033F8013D14
:10DF00000190042D21D8DFE805F012151A1D080034
:10DF1000062002B070BD052070470D4AA35873401B
:10DF2000A350019800F022F8002002B070BD094B08
:10DF3000E650F6E7084AA3587340A350F1E7044BB4
:10DF4000E650EEE7054BE650EBE7054BE650E8E719
:10DF5000B40001409000014088000140A800014049
:10DF600098000140EFF3108072B6704780F310887C
:10DF7000704700BF002900F08D800128F0B406D062
:10DF800002286BD0002853D00620F0BC7047424ACC
:10DF9000424C13680B605068486090688860D06895
:10DFA000C860C3F30357156954F827400D61C3F3E4
:10DFB00003463B48556950F826003A4A4D6103F044
:10DFC0000103C1E906340862D2F8E030D2F8E40077
:10DFD000DBB200F00F0043EA00234B62D2F8E430DA
:10DFE000D2F8E800C3F3031300F00F0043EA001374
:10DFF0008B62D2F8E830D2F8EC0003F0F003C0F303
:10E0000003100343CB62D2F8FC40D2F8F830D2F8C8
:10E01000F400D2F8F020DBB21B0443EA0463D2B26E
:10E020001343C2B243EA02230B630020F0BC7047E3
:10E03000194A9369D2F8A041C4F381640C71526902
:10E04000C3F38014C2F34005C3F3800302F001025E
:10E050008D700C70CA70F0BC4B7070470E4A4C68E3
:10E06000D2F8CC31D2F8C401C860D2F8C0514869A6
:10E070002C434C60D2F8C82103F001041043C3F3D1
:10E080004002C3F3800348610C700020F0BC0A72A8
:10E090000B74704706207047000002403CE8000007
:10E0A0007CE80000000F00F030B5554B1A6885B0D1
:10E0B00012B9544A12681A60534BDB68DBB2122B58
:10E0C00050D0514BDA68D2B2202A34D9D3F8542335
:10E0D000022060F31342C3F85423D3F854130322ED
:10E0E00062F31751C3F85413D3F85813052464F39B
:10E0F0000301C3F85813D3F8581360F30711C3F89A
:10E100005813D3F85813062060F30B21C3F85813A3
:10E11000D3F85813012060F30F31C3F85813D3F824
:10E12000581362F3DE61C3F85813D3F85C1362F33B
:10E130000301C3F85C13344AD368DBB2112B0AD84D
:10E14000324C00210C20FFF7DDFAA369DB0527D54F
:10E15000002005B030BDD2F85C336FF31863C2F80D
:10E160005C33EDE7294C6368D807AAD5FFF7FAFEC0
:10E170000390A36843F48053A3600398FFF7F6FE6F
:10E18000A020FFF717FDA369190603D4A020FFF70D
:10E1900011FDA3691D4B9B691A0692D40120D8E793
:10E1A000194D1B492A7E0120024307232A7600903D
:10E1B0001A4642F21070FFF70DFDF8B9236843F0DC
:10E1C00001032360636A43F040036362EB68DBB2E0
:10E1D000112BBDD1D5F85C3360F35653C5F85C33D1
:10E1E000D5F868330F2262F38B13C5F86833D5F87E
:10E1F000683362F30503C5F86833AAE70420A8E78B
:10E20000EC44001000F0FF4F0000024000100240FC
:10E2100018000240034A92F8503043F0100382F88D
:10E2200050307047004200404EF60853CEF20003D3
:10E230001860036842689D46104700BF70B51E4ACB
:10E24000D2F8A4315C0784B003D5D2F8A0315907C5
:10E250000AD428B1FFF7E8FF0023184604B070BDC8
:10E260000346184604B070BD1449154B0968DDE932
:10E270000154C94301269E67C3F880100399C3F86F
:10E280008450C3F88840C3F88C10DB6F3340E4D16E
:10E290000423C2F8A031D2F8B031DB07D9D5094D3B
:10E2A000094B2C68D2F8B011A4B2234321F001012C
:10E2B000C2F8B0112B60CCE700000240001A0250F7
:10E2C00000000340F0ED00E003005FA00A0A000038
:10E2D0003D3D3D3D3D3D3D3D3D3D3D3D3D3D3D3D6E
:10E2E0003D3D3D3D3D3D3D3D3D3D3D3D3D3D3D3D5E
:10E2F0003D3D3D3D3D3D3D3D0A000000424F4F54F8
:10E300004C4F414445523A2052414B313137323023
:10E3100020536166656C79596F7520437573746F0E
:10E320006D2020200A000000437573746F6D6572C4
:10E33000204B65793A203078253038782D30782593
:10E340003038782D3078253038782D3078253038B1
:10E35000780D0A004B454B3A0A0000004B657920C6
:10E360002532643A203078253038782D30782530C1
:10E3700038782D3078253038782D30782530387839
:10E380000D0A0000417574683A0A0000424F4F546C
:10E390004C4F414445523A20436865636B696E6750
:10E3A00020666F72204F54412075706461746573EC
:10E3B0002E2E2E0A00000000424F4F544C4F414475
:10E3C00045523A204F5441504F494E5445525F6296
:10E3D0002E4F544156414C4944203D2025640A00AB
:10E3E000424F4F544C4F414445523A204F544120E4
:10E3F000417661696C61626C65202D204F5441202B
:10E40000446573632040307825780A00424F4F54AA
:10E410004C4F414445523A204F5441204465736368
:10E42000726970746F725B305D203D2030782530EA
:10E4300038780A00466F756E6420626164204F541C
:10E440004120706F696E74696E6720746F3A20693D
:10E450006D61676520616464726573733D30782512
:10E46000782C2073697A6520307825780A000000BE
:10E47000466F756E64204F544120402030782578D7
:10E48000206D616769632030782578202D206865CC
:10E49000616465722073697A6520307825782C2054
:10E4A00066772073697A65203078257820746F202C
:10E4B000626520696E7374616C6C656420617420A0
:10E4C000307825780A000000466F756E6420756EFE
:10E4D0006578706563746564204F5441206D616791
:10E4E000696320307825780A00000000457863656C
:10E4F00065646564206D6178696D756D204F544168
:10E50000730A0000466F756E6420496E76616C690F
:10E5100064204F544120706F696E746572203078AA
:10E5200025780A00424F4F544C4F414445523A20FF
:10E53000436C656172696E67204F544120706F694A
:10E540006E7465720A000000424F4F544C4F4144B4
:10E5500045523A20436865636B696E67206D616957
:10E560006E20696D61676520617420307825780AB6
:10E5700000000000424F4F544C4F414445523A2056
:10E58000202053503A202020203078253038782021
:10E590002865787065637465643A20307825303872
:10E5A00078202D20307825303878290A00000000A6
:10E5B000424F4F544C4F414445523A20202052651F
:10E5C0007365743A20307825303878202865787063
:10E5D00065637465643A20307825303878202D20C2
:10E5E000307825303878290A00000000424F4F5417
:10E5F0004C4F414445523A2020205468756D6220AA
:10E600006269743A202564202865787065637465B2
:10E61000643A2031290A0000424F4F544C4F414484
:10E6200045523A20496E76616C6964206D61696E6D
:10E6300020696D616765210A00000000424F4F5458
:10E640004C4F414445523A20466F756E64207661C6
:10E650006C6964206D61696E20696D616765202D4C
:10E660002053503A307825782052563A3078257821
:10E670000A000000424F4F544C4F414445523A204B
:10E680004A756D70696E6720746F206170706C6977
:10E69000636174696F6E2E2E2E0A0A005465726DC6
:10E6A000696E616C0000000000000000000054541E
:10E6B0005220524547474553000000003031323365
:10E6C0003435363738394142434445460803000063
:10E6D00003000000030400000101800280010180AA
:10E6E00001018080808080808080808008808080A0
:10E6F0008001800180808080808080800204800191
:10E700000104010180808080010100002323276231
:10E71000A1038710035300E15181415505C4804096
:10E7200001B140411431A03100F180119121C1119A
:10E73000E5114530370030310071004030310000C4
:10E740003242521302122260334353213040502090
:10E7500031415111FFFFFFFFFFFFFFFF31415160CA
:10E760003040500033435323324252600010203077
:10E7700030405061314151010212224203132360A3
:10E780000010205001112141021222320313336084
:10E790003141512132425222334353030010204071
:10E7A0000111215132425202334353133040501071
:10E7B0003141516032425212334353030010204022
:10E7C0000111216102122252031323330010203061
:10E7D000314151613242520203133353FFFFFFFFB5
:10E7E000FFFFFFFF01112161001020500111216185
:10E7F0000212225233435313304050610111213130
:10E8000002122232031323430707070202080800FB
:10E8100002020201010101010101010101010101E5
:10E8200001010101010101010101010101010108D1
:10E830000800010101010101010100000040000088
:10E840000080000000000100000002000000040041
:10E850000000080000001000000020000000180068
:10E8600000000000000000000000000000000000A8
:10E870000000000000000000000000000040000058
:10E880000080000000000100000002000000040001
:10E8900000000800000010000000060000000C004E
:10E8A0000000000000000000000000000000000068
:0CE8B0000000000000000000000000005C
:10E8BC000A000000030000001E000000030000001E
:10E8CC000F000000030000000E0000000300000019
:10E8DC001100000003000000016000BF006800BFD1
:04E8EC00704700BFB2
:040000030000CBFD31
:00000001FF
